{
  "contractName": "Campaign",
  "abi": [
    {
      "inputs": [
        {
          "internalType": "uint256",
          "name": "minimum",
          "type": "uint256"
        },
        {
          "internalType": "address",
          "name": "creator",
          "type": "address"
        }
      ],
      "stateMutability": "nonpayable",
      "type": "constructor"
    },
    {
      "inputs": [
        {
          "internalType": "address",
          "name": "",
          "type": "address"
        }
      ],
      "name": "approvers",
      "outputs": [
        {
          "internalType": "bool",
          "name": "",
          "type": "bool"
        }
      ],
      "stateMutability": "view",
      "type": "function"
    },
    {
      "inputs": [],
      "name": "approversCount",
      "outputs": [
        {
          "internalType": "uint256",
          "name": "",
          "type": "uint256"
        }
      ],
      "stateMutability": "view",
      "type": "function"
    },
    {
      "inputs": [],
      "name": "manager",
      "outputs": [
        {
          "internalType": "address",
          "name": "",
          "type": "address"
        }
      ],
      "stateMutability": "view",
      "type": "function"
    },
    {
      "inputs": [],
      "name": "minimumContribution",
      "outputs": [
        {
          "internalType": "uint256",
          "name": "",
          "type": "uint256"
        }
      ],
      "stateMutability": "view",
      "type": "function"
    },
    {
      "inputs": [],
      "name": "contribute",
      "outputs": [],
      "stateMutability": "payable",
      "type": "function"
    },
    {
      "inputs": [
        {
          "internalType": "string",
          "name": "description",
          "type": "string"
        },
        {
          "internalType": "uint256",
          "name": "value",
          "type": "uint256"
        },
        {
          "internalType": "address",
          "name": "recipient",
          "type": "address"
        }
      ],
      "name": "createRequest",
      "outputs": [],
      "stateMutability": "nonpayable",
      "type": "function"
    },
    {
      "inputs": [
        {
          "internalType": "uint256",
          "name": "index",
          "type": "uint256"
        }
      ],
      "name": "approveRequest",
      "outputs": [],
      "stateMutability": "nonpayable",
      "type": "function"
    },
    {
      "inputs": [
        {
          "internalType": "uint256",
          "name": "index",
          "type": "uint256"
        }
      ],
      "name": "finalizeRequest",
      "outputs": [],
      "stateMutability": "nonpayable",
      "type": "function"
    },
    {
      "inputs": [],
      "name": "getSummary",
      "outputs": [
        {
          "internalType": "uint256",
          "name": "",
          "type": "uint256"
        },
        {
          "internalType": "uint256",
          "name": "",
          "type": "uint256"
        },
        {
          "internalType": "uint256",
          "name": "",
          "type": "uint256"
        },
        {
          "internalType": "uint256",
          "name": "",
          "type": "uint256"
        },
        {
          "internalType": "address",
          "name": "",
          "type": "address"
        }
      ],
      "stateMutability": "view",
      "type": "function"
    },
    {
      "inputs": [],
      "name": "getRequestsCount",
      "outputs": [
        {
          "internalType": "uint256",
          "name": "",
          "type": "uint256"
        }
      ],
      "stateMutability": "view",
      "type": "function"
    }
  ],
  "bytecode": "0x60806040523480156200001157600080fd5b5060405162000e0e38038062000e0e8339818101604052810190620000379190620000b5565b80600260006101000a81548173ffffffffffffffffffffffffffffffffffffffff021916908373ffffffffffffffffffffffffffffffffffffffff16021790555081600381905550505062000173565b60008151905062000098816200013f565b92915050565b600081519050620000af8162000159565b92915050565b60008060408385031215620000cf57620000ce6200013a565b5b6000620000df858286016200009e565b9250506020620000f28582860162000087565b9150509250929050565b6000620001098262000110565b9050919050565b600073ffffffffffffffffffffffffffffffffffffffff82169050919050565b6000819050919050565b600080fd5b6200014a81620000fc565b81146200015657600080fd5b50565b620001648162000130565b81146200017057600080fd5b50565b610c8b80620001836000396000f3fe6080604052600436106100915760003560e01c806382fde0931161005957806382fde093146101815780638a9cfd55146101ac578063937e09b1146101d5578063d7bb99ba14610200578063d7d1bbdb1461020a57610091565b806303441006146100965780630a144391146100bf5780633410452a146100fc5780634051ddac14610127578063481c6a7514610156575b600080fd5b3480156100a257600080fd5b506100bd60048036038101906100b891906108be565b610233565b005b3480156100cb57600080fd5b506100e660048036038101906100e19190610822565b61036e565b6040516100f39190610933565b60405180910390f35b34801561010857600080fd5b5061011161038e565b60405161011e919061094e565b60405180910390f35b34801561013357600080fd5b5061013c610397565b60405161014d959493929190610969565b60405180910390f35b34801561016257600080fd5b5061016b6103dd565b6040516101789190610918565b60405180910390f35b34801561018d57600080fd5b50610196610403565b6040516101a3919061094e565b60405180910390f35b3480156101b857600080fd5b506101d360048036038101906101ce919061084f565b610409565b005b3480156101e157600080fd5b506101ea610521565b6040516101f7919061094e565b60405180910390f35b610208610527565b005b34801561021657600080fd5b50610231600480360381019061022c91906108be565b6105a7565b005b600260009054906101000a900473ffffffffffffffffffffffffffffffffffffffff1673ffffffffffffffffffffffffffffffffffffffff163373ffffffffffffffffffffffffffffffffffffffff161461028d57600080fd5b600060016000838152602001908152602001600020905060026005546102b39190610a12565b8160030154116102c257600080fd5b8060020160149054906101000a900460ff16156102de57600080fd5b8060020160009054906101000a900473ffffffffffffffffffffffffffffffffffffffff1673ffffffffffffffffffffffffffffffffffffffff166108fc82600101549081150290604051600060405180830381858888f1935050505015801561034c573d6000803e3d6000fd5b5060018160020160146101000a81548160ff0219169083151502179055505050565b60046020528060005260406000206000915054906101000a900460ff1681565b60008054905090565b600080600080600060035447600054600554600260009054906101000a900473ffffffffffffffffffffffffffffffffffffffff16945094509450945094509091929394565b600260009054906101000a900473ffffffffffffffffffffffffffffffffffffffff1681565b60055481565b600260009054906101000a900473ffffffffffffffffffffffffffffffffffffffff1673ffffffffffffffffffffffffffffffffffffffff163373ffffffffffffffffffffffffffffffffffffffff161461046357600080fd5b60006001600080600081548092919061047b90610afd565b9190505581526020019081526020016000209050838160000190805190602001906104a79291906106e5565b50828160010181905550818160020160006101000a81548173ffffffffffffffffffffffffffffffffffffffff021916908373ffffffffffffffffffffffffffffffffffffffff16021790555060008160020160146101000a81548160ff0219169083151502179055506000816003018190555050505050565b60035481565b600354341161053557600080fd5b6001600460003373ffffffffffffffffffffffffffffffffffffffff1673ffffffffffffffffffffffffffffffffffffffff16815260200190815260200160002060006101000a81548160ff021916908315150217905550600560008154809291906105a090610afd565b9190505550565b6000600160008381526020019081526020016000209050600460003373ffffffffffffffffffffffffffffffffffffffff1673ffffffffffffffffffffffffffffffffffffffff16815260200190815260200160002060009054906101000a900460ff1661061457600080fd5b8060040160003373ffffffffffffffffffffffffffffffffffffffff1673ffffffffffffffffffffffffffffffffffffffff16815260200190815260200160002060009054906101000a900460ff161561066d57600080fd5b60018160040160003373ffffffffffffffffffffffffffffffffffffffff1673ffffffffffffffffffffffffffffffffffffffff16815260200190815260200160002060006101000a81548160ff0219169083151502179055508060030160008154809291906106dc90610afd565b91905055505050565b8280546106f190610a9a565b90600052602060002090601f016020900481019282610713576000855561075a565b82601f1061072c57805160ff191683800117855561075a565b8280016001018555821561075a579182015b8281111561075957825182559160200191906001019061073e565b5b509050610767919061076b565b5090565b5b8082111561078457600081600090555060010161076c565b5090565b600061079b610796846109e1565b6109bc565b9050828152602081018484840111156107b7576107b6610c07565b5b6107c2848285610a8b565b509392505050565b6000813590506107d981610c27565b92915050565b600082601f8301126107f4576107f3610c02565b5b8135610804848260208601610788565b91505092915050565b60008135905061081c81610c3e565b92915050565b60006020828403121561083857610837610c11565b5b6000610846848285016107ca565b91505092915050565b60008060006060848603121561086857610867610c11565b5b600084013567ffffffffffffffff81111561088657610885610c0c565b5b610892868287016107df565b93505060206108a38682870161080d565b92505060406108b4868287016107ca565b9150509250925092565b6000602082840312156108d4576108d3610c11565b5b60006108e28482850161080d565b91505092915050565b6108f481610a43565b82525050565b61090381610a55565b82525050565b61091281610a81565b82525050565b600060208201905061092d60008301846108eb565b92915050565b600060208201905061094860008301846108fa565b92915050565b60006020820190506109636000830184610909565b92915050565b600060a08201905061097e6000830188610909565b61098b6020830187610909565b6109986040830186610909565b6109a56060830185610909565b6109b260808301846108eb565b9695505050505050565b60006109c66109d7565b90506109d28282610acc565b919050565b6000604051905090565b600067ffffffffffffffff8211156109fc576109fb610bd3565b5b610a0582610c16565b9050602081019050919050565b6000610a1d82610a81565b9150610a2883610a81565b925082610a3857610a37610b75565b5b828204905092915050565b6000610a4e82610a61565b9050919050565b60008115159050919050565b600073ffffffffffffffffffffffffffffffffffffffff82169050919050565b6000819050919050565b82818337600083830152505050565b60006002820490506001821680610ab257607f821691505b60208210811415610ac657610ac5610ba4565b5b50919050565b610ad582610c16565b810181811067ffffffffffffffff82111715610af457610af3610bd3565b5b80604052505050565b6000610b0882610a81565b91507fffffffffffffffffffffffffffffffffffffffffffffffffffffffffffffffff821415610b3b57610b3a610b46565b5b600182019050919050565b7f4e487b7100000000000000000000000000000000000000000000000000000000600052601160045260246000fd5b7f4e487b7100000000000000000000000000000000000000000000000000000000600052601260045260246000fd5b7f4e487b7100000000000000000000000000000000000000000000000000000000600052602260045260246000fd5b7f4e487b7100000000000000000000000000000000000000000000000000000000600052604160045260246000fd5b600080fd5b600080fd5b600080fd5b600080fd5b6000601f19601f8301169050919050565b610c3081610a43565b8114610c3b57600080fd5b50565b610c4781610a81565b8114610c5257600080fd5b5056fea2646970667358221220c3dfcd12393674fffef628893d0cb0cb2f1a7c35aa4fa0fe5e59d1e3cb8f241f64736f6c63430008060033",
  "immutableReferences": {},
  "source": "pragma solidity ^0.8.0;\n\ncontract Campaign {\n    struct Request {\n        string description;\n        uint value;\n        address payable recipient;\n        bool complete;\n        uint approvalCount;\n        mapping(address => bool) approvals;\n    }\n\n    uint numRequests;\n    mapping (uint => Request) requests;\n    address public manager;\n    uint public minimumContribution;\n    mapping(address => bool) public approvers;\n    uint public approversCount;\n\n    modifier restricted() {\n        require(msg.sender == manager);\n        _;\n    }\n\n    constructor(uint minimum, address creator) {\n        manager = creator;\n        minimumContribution = minimum;\n    }\n\n    function contribute() public payable {\n        require(msg.value > minimumContribution);\n\n        approvers[msg.sender] = true;\n        approversCount++;\n    }\n\n    function createRequest(string memory description, uint value, address recipient) public restricted {\n        Request storage r = requests[numRequests++];\n        r.description = description;\n        r.value = value;\n        r.recipient = payable(recipient);\n        r.complete = false;\n        r.approvalCount = 0;\n    }\n\n    function approveRequest(uint index) public {\n        Request storage request = requests[index];\n\n        require(approvers[msg.sender]);\n        require(!request.approvals[msg.sender]);\n\n        request.approvals[msg.sender] = true;\n        request.approvalCount++;\n    }\n\n    function finalizeRequest(uint index) public restricted {\n        Request storage request = requests[index];\n\n        require(request.approvalCount > (approversCount / 2));\n        require(!request.complete);\n\n        request.recipient.transfer(request.value);\n        request.complete = true;\n    }\n\n    function getSummary() public view returns (\n      uint, uint, uint, uint, address\n      ) {\n        return (\n          minimumContribution,\n          address(this).balance,\n          numRequests,\n          approversCount,\n          manager\n        );\n    }\n\n    function getRequestsCount() public view returns (uint) {\n        return numRequests;\n    }\n}\n",
  "sourcePath": "/Users/pielvisoftvision/workspace/crowdfunding/smart-contracts/contracts/Campaign.sol",
  "compiler": {
    "name": "solc",
    "version": "0.8.6+commit.11564f7e.Emscripten.clang"
  },
  "schemaVersion": "3.4.1",
  "updatedAt": "2021-07-09T21:52:47.668Z",
  "devdoc": {
    "kind": "dev",
    "methods": {},
    "version": 1
  },
  "userdoc": {
    "kind": "user",
    "methods": {},
    "version": 1
  }
}